:020000040800F2
:1000000000800120CD070008550700085B070008A5
:1000100061070008670700086D070008000000007E
:10002000000000000000000000000000730700084E
:1000300081070008000000008F0700089D070008E6
:100040001D0800081D0800081D0800081D080008FC
:100050001D0800081D0800081D0800081D080008EC
:100060001D0800081D0800081D0800081D080008DC
:100070001D0800081D0800081D0800081D080008CC
:100080001D0800081D0800081D08000800000000E9
:100090000000000000000000000000001D08000833
:1000A0001D0800081D0800081D0800081D0800089C
:1000B0001D0800081D0800081D0800081D0800088C
:1000C0001D0800081D0800081D0800081D0800087C
:1000D0001D0800081D0800081D0800080000000099
:1000E0001D0800081D0800081D0800080000000089
:1000F0000000000000000000000000001D080008D3
:10010000000000001D0800081D0800081D08000868
:1001100000000000000000000000000000000000DF
:100120001D0800081D0800081D0800081D0800081B
:100130001D08000800000000000000000000000092
:100140000000000000000000000000001D08000882
:100150001D0800081D0800081D0800081D080008EB
:100160001D0800081D080008000000000000000035
:10017000000000000000000000000000000000007F
:10018000000000001D080008000000000000000042
:040190001D0800083E
:1001940010B5054C237833B9044B13B10448AFF3BD
:1001A40000800123237010BD0C000020000000001B
:1001B400EC1C000808B5034B1BB103490348AFF31B
:1001C400008008BD0000000010000020EC1C0008A6
:1001D40053B94AB9002908BF00281CBF4FF0FF31AA
:1001E4004FF0FF3000F06EB9ADF1080C6DE904CEAC
:1001F40000F006F8DDF804E0DDE9022304B07047FE
:100204002DE9F047089D04468C46002B40F083807E
:100214008A42174647D9B2FA82F242B1C2F12000AB
:1002240024FA00F09140974040EA010C94404FEAD0
:100234001748230CBCFBF8F61FFA87FE08FB16C10F
:1002440043EA014306FB0EF1994209D9FB1806F172
:10025400FF3080F01981994240F21681023E3B44FE
:100264005B1AA4B2B3FBF8F008FB103344EA03446E
:1002740000FB0EFEA64509D93C1900F1FF3380F0BE
:100284000581A64540F2028102383C4440EA06401A
:10029400A4EB0E0400261DB1D4400023C5E900439D
:1002A4003146BDE8F08702B9FFDEB2FA82F2002AD5
:1002B40050D1CB1B4FEA174E1FFA87F80126B3FB28
:1002C400FEFC210C0EFB1C3341EA034108FB0CF33A
:1002D4008B4207D979180CF1FF3002D28B4200F21D
:1002E400E9808446C91AA3B2B1FBFEF00EFB1011DB
:1002F40043EA014408FB00F8A04507D93C1900F182
:10030400FF3302D2A04500F2D9801846A4EB0804BA
:1003140040EA0C40BFE78B4209D9002D00F0B180C0
:100324000026C5E9000130463146BDE8F087B3FA3E
:1003340083F6002E4AD18B4202D3824200F2B88067
:10034400841A61EB030101208C46002DA8D0C5E975
:10035400004CA5E7C2F1200320FA03F6974001FA06
:1003640002F04FEA174ED9403043030CB1FBFEF6BE
:100374001FFA87F80EFB161143EA014306FB08F146
:10038400994204FA02F409D9FB1806F1FF3C80F003
:100394008D80994240F28A80023E3B445B1A81B2CE
:1003A400B3FBFEF00EFB103341EA034100FB08F3FC
:1003B4008B4207D9791800F1FF3C73D28B4271D973
:1003C40002383944CB1A40EA064678E7C6F1200CD5
:1003D40003FA06F422FA0CF31C4320FA0CF701FA90
:1003E40006F34FEA144E21FA0CF11F433B0CB1FB08
:1003F400FEF91FFA84F80EFB191143EA014109FBC7
:1004040008FA8A4502FA06F200FA06F308D96118D6
:1004140009F1FF3048D28A4546D9A9F1020921449D
:10042400A1EB0A01BFB2B1FBFEF00EFB101147EACB
:10043400014700FB08F8B84507D9E71900F1FF3177
:100444002ED2B8452CD90238274440EA0940A7EBFC
:100454000807A0FB02894F45C64649461AD317D060
:100464005DB1B3EB0E0267EB010707FA0CFCF24037
:100474004CEA0202F740C5E9002700263146BDE8F0
:10048400F0872E4628460BE70646E9E61846FDE6C1
:100494004345E5D2B8EB020E69EB04010138DFE70E
:1004A4000846D2E760468DE78146B9E7664675E7B8
:1004B40030464AE7ACF1020C394413E702383C44B5
:1004C40024E700BF704700BF90B585B000AF0A4B6A
:1004D4003C460FCB07C4237000F0A0F900F010F8DD
:1004E40000F098F800F06CF8394664230C220348B5
:1004F40001F005F9FEE700BF041D000828000020F4
:1005040080B594B000AF07F12003302200211846D3
:1005140001F0E2FB07F10C0300221A605A609A60B2
:10052400DA601A610023BB60234B1B6C224A43F040
:1005340080531364204B1B6C03F08053BB60BB6877
:1005440000237B601D4B1B6823F440431B4A43F488
:1005540000431360194B1B6803F440437B607B68C2
:1005640002233B620123FB6210233B630023BB6332
:1005740007F12003184600F02DFC0346002B01D0A0
:1005840000F070F80F23FB6000233B6100237B61C4
:100594000023BB610023FB6107F10C030021184613
:1005A40000F090FE0346002B01D000F05BF800BF82
:1005B4005037BD4680BD00BF003802400070004087
:1005C40080B500AF114B124A1A60104B4FF4E13260
:1005D4005A600E4B00229A600C4B0022DA600B4BDF
:1005E40000221A61094B0C225A61084B00229A61BD
:1005F400064B0022DA61054801F034F80346002B6B
:1006040001D000F02FF800BF80BD00BF28000020FB
:100614000010014080B483B000AF00237B60104B16
:100624001B6B0F4A43F0020313630D4B1B6B03F068
:1006340002037B607B6800233B60094B1B6B084A09
:1006440043F080031363064B1B6B03F080033B6092
:100654003B6800BF0C37BD465DF8047B704700BFA4
:100664000038024080B400AF72B600BFFEE700005D
:1006740080B483B000AF00237B60104B5B6C0F4AE7
:1006840043F4804353640D4B5B6C03F480437B6001
:100694007B6800233B60094B1B6C084A43F0805382
:1006A4001364064B1B6C03F080533B603B6800BF34
:1006B4000C37BD465DF8047B704700BF003802402C
:1006C40080B58AB000AF786007F1140300221A6085
:1006D4005A609A60DA601A617B681B68194A93420F
:1006E4002BD100233B61184B5B6C174A43F010037A
:1006F4005364154B5B6C03F010033B613B690023AF
:10070400FB60114B1B6B104A43F0020313630E4B47
:100714001B6B03F00203FB60FB68C0237B610223B5
:10072400BB610023FB6103233B6207237B6207F168
:1007340014031946054800F0C9F900BF2837BD461F
:1007440080BD00BF00100140003802400004024098
:1007540080B400AFFEE780B400AFFEE780B400AF22
:10076400FEE780B400AFFEE780B400AFFEE780B4DC
:1007740000AF00BFBD465DF8047B704780B400AF96
:1007840000BFBD465DF8047B704780B400AF00BF76
:10079400BD465DF8047B704780B500AF00F090F86B
:1007A40000BF80BD80B400AF064BD3F88830054A43
:1007B40043F47003C2F8883000BFBD465DF8047B83
:1007C400704700BF00ED00E0DFF834D00D480E495B
:1007D4000E4A002302E0D458C4500433C4188C4297
:1007E400F9D30B4A0B4C002301E013600432A242FC
:1007F400FBD3FFF7D7FF01F04BFAFFF765FE704715
:1008040000800120000000200C0000203C1D000896
:100814000C00002070000020FEE7000080B500AF4F
:100824000E4B1B680D4A43F4007313600B4B1B689B
:100834000A4A43F480631360084B1B68074A43F475
:1008440080731360032000F00DF90F2000F008F806
:10085400FFF70EFF0023184680BD00BF003C024096
:1008640080B582B000AF7860124B1A68124B1B78C7
:1008740019464FF47A73B3FBF1F3B2FBF3F3184662
:1008840000F017F90346002B01D001230EE07B682A
:100894000F2B0AD8002279684FF0FF3000F0EDF8F2
:1008A400064A7B681360002300E0012318460837DA
:1008B400BD4680BD00000020080000200400002088
:1008C40080B400AF064B1B781A46064B1B681344D2
:1008D400044A136000BFBD465DF8047B704700BF47
:1008E400080000206C00002080B400AF034B1B689C
:1008F4001846BD465DF8047B704700BF6C000020BD
:1009040080B485B000AF78607B6803F00703FB60B8
:100914000C4BDB68BB60BA684FF6FF031340BB6047
:10092400FB681A02BB68134343F0BF6343F400330C
:10093400BB60044ABB68D36000BF1437BD465DF892
:10094400047B704700ED00E080B400AF044BDB682B
:100954001B0A03F007031846BD465DF8047B704785
:1009640000ED00E080B483B000AF03463960FB7152
:1009740097F90730002B0ADB3B68DAB20C4997F988
:1009840007301201D2B20B4483F800230AE03B681B
:10099400DAB20849FB7903F00F03043B1201D2B227
:1009A4000B441A7600BF0C37BD465DF8047B7047D4
:1009B40000E100E000ED00E080B489B000AFF86031
:1009C400B9607A60FB6803F00703FB61FB69C3F15C
:1009D4000703042B28BF0423BB61FB690433062BE4
:1009E40002D9FB69033B00E000237B614FF0FF3237
:1009F400BB6902FA03F3DA43BB681A407B699A4085
:100A04004FF0FF317B6901FA03F3D9437B680B4054
:100A1400134318462437BD465DF8047B7047000035
:100A240080B582B000AF78607B68013BB3F1807F12
:100A340001D301230FE00A4A7B68013B53600F2175
:100A44004FF0FF30FFF78EFF054B00229A60044BF6
:100A540007221A60002318460837BD4680BD00BF30
:100A640010E000E080B582B000AF78607868FFF7EE
:100A740047FF00BF0837BD4680BD80B586B000AFD4
:100A84000346B9607A60FB7300237B61FFF75CFF68
:100A940078617A68B9687869FFF78EFF024697F93A
:100AA4000F3011461846FFF75DFF00BF1837BD46EB
:100AB40080BD80B582B000AF78607868FFF7B0FF82
:100AC400034618460837BD4680BD000080B489B08F
:100AD40000AF7860396000237B6100233B61002311
:100AE400BB610023FB6159E10122FB6902FA03F3B4
:100AF4007B613B681B687A6913403B613A697B6997
:100B04009A4240F048813B685B6803F00303012B81
:100B140005D03B685B6803F00303022B30D17B688C
:100B24009B68BB61FB695B00032202FA03F3DB43AE
:100B3400BA691340BB613B68DA68FB695B0002FA7F
:100B440003F3BA691343BB617B68BA699A607B6833
:100B54005B68BB610122FB6902FA03F3DB43BA69F8
:100B64001340BB613B685B681B0903F00102FB692E
:100B740002FA03F3BA691343BB617B68BA695A602A
:100B84003B685B6803F00303032B17D07B68DB68C7
:100B9400BB61FB695B00032202FA03F3DB43BA691E
:100BA4001340BB613B689A68FB695B0002FA03F37C
:100BB400BA691343BB617B68BA69DA603B685B68F6
:100BC40003F00303022B23D1FB69DA087B680832A4
:100BD40053F82230BB61FB6903F007039B000F222B
:100BE40002FA03F3DB43BA691340BB613B681A6939
:100BF400FB6903F007039B0002FA03F3BA6913438A
:100C0400BB61FB69DA087B680832B96943F82210D2
:100C14007B681B68BB61FB695B00032202FA03F378
:100C2400DB43BA691340BB613B685B6803F00302B2
:100C3400FB695B0002FA03F3BA691343BB617B6887
:100C4400BA691A603B685B6803F44033002B00F018
:100C5400A2800023FB60574B5B6C564A43F48043ED
:100C64005364544B5B6C03F48043FB60FB68524A4F
:100C7400FB699B08023352F82330BB61FB6903F024
:100C840003039B000F2202FA03F3DB43BA69134008
:100C9400BB617B68494A934219D07B68484A9342B6
:100CA40013D07B68474A93420DD07B68464A9342EF
:100CB40007D07B68454A934201D1042308E0072307
:100CC40006E0032304E0022302E0012300E0002302
:100CD400FA6902F0030292009340BA691343BB61BC
:100CE4003549FB699B080233BA6941F82320384B24
:100CF4001B68BB613B69DB43BA691340BB613B685A
:100D04005B6803F48033002B03D0BA693B69134357
:100D1400BB612F4ABB6913602D4B5B68BB613B69A8
:100D2400DB43BA691340BB613B685B6803F400337F
:100D3400002B03D0BA693B691343BB61244ABB69E6
:100D44005360234B9B68BB613B69DB43BA69134027
:100D5400BB613B685B6803F48013002B03D0BA6962
:100D64003B691343BB611A4ABB699360184BDB6848
:100D7400BB613B69DB43BA691340BB613B685B6899
:100D840003F40013002B03D0BA693B691343BB611E
:100D94000F4ABB69D360FB690133FB61FB690F2B0D
:100DA4007FF6A2AE00BF00BF2437BD465DF8047BCA
:100DB400704700BF00380240003801400000024084
:100DC4000004024000080240000C024000100240EF
:100DD400003C014080B586B000AF78607B68002B92
:100DE40001D1012364E27B681B6803F00103002B3B
:100DF40075D0A34B9B6803F00C03042B0CD0A04BC1
:100E04009B6803F00C03082B12D19D4B5B6803F421
:100E14008003B3F5800F0BD1994B1B6803F40033A7
:100E2400002B5BD07B685B68002B57D101233FE22A
:100E34007B685B68B3F5803F06D1914B1B68904A91
:100E440043F4803313601DE07B685B68B3F5A02F27
:100E54000CD18B4B1B688A4A43F480231360884B64
:100E64001B68874A43F4803313600BE0844B1B6890
:100E7400834A23F480331360814B1B68804A23F434
:100E8400802313607B685B68002B13D0FFF72CFD75
:100E9400386108E0FFF728FD02463B69D31A642B4A
:100EA40001D9032304E2764B1B6803F40033002BBF
:100EB400F0D014E0FFF718FD386108E0FFF714FDE7
:100EC40002463B69D31A642B01D90323F0E16C4B2E
:100ED4001B6803F40033002BF0D100E000BF7B68F3
:100EE4001B6803F00203002B63D0654B9B6803F07F
:100EF4000C03002B0BD0624B9B6803F00C03082BF4
:100F04001CD15F4B5B6803F48003002B16D15C4B50
:100F14001B6803F00203002B05D07B68DB68012B00
:100F240001D00123C4E1564B1B6823F0F8027B680F
:100F34001B69DB00524913430B603AE07B68DB68B2
:100F4400002B20D04F4B01221A60FFF7CDFC3861F3
:100F540008E0FFF7C9FC02463B69D31A022B01D90A
:100F64000323A5E1464B1B6803F00203002BF0D0DA
:100F7400434B1B6823F0F8027B681B69DB00404984
:100F840013430B6015E03F4B00221A60FFF7ACFCE3
:100F9400386108E0FFF7A8FC02463B69D31A022B2C
:100FA40001D9032384E1364B1B6803F00203002BB1
:100FB400F0D17B681B6803F00803002B30D07B68FA
:100FC4005B69002B16D0304B01221A60FFF78CFCB2
:100FD400386108E0FFF788FC02463B69D31A022B0C
:100FE40001D9032364E1264B5B6F03F00203002B5A
:100FF400F0D015E0244B00221A60FFF775FC38612D
:1010040008E0FFF771FC02463B69D31A022B01D9B1
:1010140003234DE11A4B5B6F03F00203002BF0D165
:101024007B681B6803F00403002B00F0A0800023FE
:10103400FB75134B1B6C03F08053002B0FD1002363
:10104400BB600F4B1B6C0E4A43F0805313640C4B74
:101054001B6C03F08053BB60BB680123FB750B4B17
:101064001B6803F48073002B21D1084B1B68074ACB
:1010740043F480731360FFF737FC386111E000BF5D
:101084000038024000004742800E47420070004092
:10109400FFF72AFC02463B69D31A022B01D903232A
:1010A40006E1854B1B6803F48073002BF0D07B684A
:1010B4009B68012B06D1814B1B6F804A43F00103CF
:1010C40013671CE07B689B68052B0CD17B4B1B6F63
:1010D4007A4A43F004031367784B1B6F774A43F053
:1010E400010313670BE0754B1B6F744A23F0010374
:1010F4001367724B1B6F714A23F0040313677B68F9
:101104009B68002B15D0FFF7EFFB38610AE0FFF76F
:10111400EBFB02463B69D31A41F28832934201D970
:101124000323C5E0654B1B6F03F00203002BEED0D5
:1011340014E0FFF7D9FB38610AE0FFF7D5FB02465C
:101144003B69D31A41F28832934201D90323AFE0B9
:101154005A4B1B6F03F00203002BEED1FB7D012BD6
:1011640005D1564B1B6C554A23F0805313647B689E
:101174009B69002B00F09B80504B9B6803F00C0391
:10118400082B5CD07B689B69022B41D14C4B00221D
:101194001A60FFF7A9FB386108E0FFF7A5FB0246D8
:1011A4003B69D31A022B01D9032381E0434B1B680B
:1011B40003F00073002BF0D17B68DA697B681B6A4B
:1011C4001A437B685B6A9B011A437B689B6A5B08D2
:1011D400013B1B041A437B68DB6A1B063749134334
:1011E4004B60374B01221A60FFF77EFB386108E041
:1011F400FFF77AFB02463B69D31A022B01D903237A
:1012040056E02E4B1B6803F00073002BF0D04EE029
:101214002B4B00221A60FFF767FB386108E0FFF7E9
:1012240063FB02463B69D31A022B01D903233FE037
:10123400224B1B6803F00073002BF0D137E07B686E
:101244009B69012B01D1012332E01C4B5B68FB60DD
:101254007B689B69012B28D0FB6803F480027B68C0
:10126400DB699A4221D1FB6803F03F027B681B6A69
:101274009A421AD1FA6847F6C07313407A68526AE0
:101284009201934211D1FB6803F440327B689B6A5C
:101294005B08013B1B049A4207D1FB6803F07062B0
:1012A4007B68DB6A1B069A4201D0012300E000231D
:1012B40018461837BD4680BD007000400038024013
:1012C4006000474280B584B000AF786039607B68C5
:1012D400002B01D10123CCE0684B1B6803F007030A
:1012E4003A689A420CD9654B3A68D2B21A70634B89
:1012F4001B6803F007033A689A4201D00123B8E05F
:101304007B681B6803F00203002B20D07B681B68FA
:1013140003F00403002B05D0594B9B68584A43F44F
:10132400E05393607B681B6803F00803002B05D02F
:10133400534B9B68524A43F460439360504B9B6801
:1013440023F0F0027B689B684D4913438B607B68F4
:101354001B6803F00103002B44D07B685B68012BFE
:1013640007D1474B1B6803F40033002B19D1012329
:101374007FE07B685B68022B03D07B685B68032B90
:1013840007D13F4B1B6803F00073002B09D10123E5
:101394006FE03B4B1B6803F00203002B01D10123D8
:1013A40067E0374B9B6823F003027B685B68344932
:1013B40013438B60FFF798FAF8600AE0FFF794FA9A
:1013C4000246FB68D31A41F28832934201D90323BF
:1013D4004FE02B4B9B6803F00C027B685B689B001F
:1013E4009A42EBD1254B1B6803F007033A689A42F3
:1013F4000CD2224B3A68D2B21A70204B1B6803F00D
:1014040007033A689A4201D0012332E07B681B68E3
:1014140003F00403002B08D0194B9B6823F4E0521B
:101424007B68DB68164913438B607B681B6803F099
:101434000803002B09D0124B9B6823F460427B689D
:101444001B69DB000E4913438B6000F021F8024650
:101454000B4B9B681B0903F00F030A49CB5C22FA70
:1014640003F3094A1360094B1B681846FFF7F8F9A0
:10147400002318461037BD4680BD00BF003C024023
:1014840000380240141D0008000000200400002061
:10149400B0B584B000AF002179600021F96000216B
:1014A40039600021B9605249896801F00C010829AA
:1014B4000DD0082900F29480002902D0042903D019
:1014C4008EE04C4BBB608EE04B4BBB608BE04849DD
:1014D400496801F03F0179604549496801F4800198
:1014E400002924D042494968890908464FF000017F
:1014F40040F2FF144FF0000500EA040201EA05037C
:101504003D4901FB03F0002101FB02F144183A4973
:10151400A2FB0101631819467B681A464FF00003C9
:10152400FEF756FE02460B461346FB604AE0304B7C
:101534005B689B091A464FF0000340F2FF104FF01E
:10154400000102EA000403EA0105204629464FF09F
:1015540000024FF000034B0143EAD06342011046FE
:101564001946001B61EB05014FF000024FF0000328
:101574008B0143EA90638201121A63EB01034FF07B
:1015840000004FF00001D90041EA5271D000024638
:101594000B46121945EB03034FF000004FF0000116
:1015A400990241EA9251900202460B4610461946AE
:1015B4007B681A464FF00003FEF70AFE02460B460C
:1015C4001346FB600A4B5B681B0C03F003030133F7
:1015D4005B003B60FA683B68B2FBF3F3BB6002E07C
:1015E400044BBB6000BFBB6818461037BD46B0BD96
:1015F400003802400024F40040787D0180B400AF3C
:10160400034B1B681846BD465DF8047B704700BF5A
:101614000000002080B500AFFFF7F0FF0246054B45
:101624009B689B0A03F007030349CB5C22FA03F38C
:10163400184680BD00380240241D000880B500AF64
:10164400FFF7DCFF0246054B9B685B0B03F00703C7
:101654000349CB5C22FA03F3184680BD00380240EC
:10166400241D000880B582B000AF78607B68002B31
:1016740001D101233FE07B6893F83D30DBB2002BBE
:1016840006D17B68002283F83C207868FFF718F8BD
:101694007B68242283F83D207B681B68DA687B68BA
:1016A4001B6822F40052DA60786800F029F97B683C
:1016B4001B681A697B681B6822F490421A617B6874
:1016C4001B685A697B681B6822F02A025A617B688E
:1016D4001B68DA687B681B6842F40052DA607B6836
:1016E40000221A647B68202283F83D207B68202234
:1016F40083F83E20002318460837BD4680BD80B5D8
:101704008AB002AFF860B9603B601346FB800023E7
:101714007B61FB6893F83D30DBB2202B7CD1BB6846
:10172400002B02D0FB88002B01D1012375E0FB685C
:1017340093F83C30012B01D102236EE0FB680122B7
:1017440083F83C20FB6800221A64FB68212283F89A
:101754003D20FFF7C9F87861FB68FA889A84FB6832
:10176400FA88DA84FB689B68B3F5805F08D1FB686C
:101774001B69002B04D10023FB61BB68BB6103E040
:10178400BB68FB610023BB61FB68002283F83C203B
:101794002AE03B6800937B6900228021F86800F00E
:1017A40040F80346002B01D0032336E0FB69002BED
:1017B4000BD1BB691B881A46FB681B68C2F308027D
:1017C4005A60BB690233BB6107E0FB691A78FB68A6
:1017D4001B685A60FB690133FB61FB68DB8C9BB2BD
:1017E400013B9AB2FB68DA84FB68DB8C9BB2002B6A
:1017F400CFD13B6800937B6900224021F86800F058
:1018040010F80346002B01D0032306E0FB682022D6
:1018140083F83D20002300E0022318462037BD460C
:1018240080BD80B590B000AFF860B9603B601346EE
:10183400FB7150E0BB6CB3F1FF3F4CD0BB6C002B91
:1018440007D0FFF751F802463B68D31ABA6C9A42A4
:1018540041D2FB681B680C33BB62BB6A53E8003F90
:101864007B627B6A23F4D073FB63FB681B680C33D5
:10187400FA6B7A633B63396B7A6B41E80023FB6252
:10188400FB6A002BE5D1FB681B6814337B617B6921
:1018940053E8003F3B613B6923F00103BB63FB68F2
:1018A4001B681433BA6B3A62FB61F9693A6A41E81E
:1018B4000023BB61BB69002BE5D1FB68202283F8C0
:1018C4003D20FB68202283F83E20FB68002283F839
:1018D4003C2003230FE0FB681B681A68BB681340B5
:1018E400BA689A420CBF01230023DBB21A46FB7983
:1018F4009A429FD0002318464037BD4680BD000061
:101904002DE9F04F9FB000AFF866FB6E1B681B69B2
:1019140023F44050FB6ED968FB6E1A6840EA010359
:101924001361FB6E9A68FB6E1B691A43FB6E5B695D
:101934001A43FB6EDB6913433B67FB6E1B68DB6872
:1019440023F4164121F00C01FB6E1A683B6F0B4324
:10195400D360FB6E1B685B6923F44070FB6E99696E
:10196400FB6E1A6840EA01035361FB6E1A68C54BAB
:101974009A4204D0FB6E1A68C34B9A4203D1FFF714
:101984005DFE786702E0FFF745FE7867FB6EDB6972
:10199400B3F5004F40F0B6807B6F1C464FF0000556
:1019A40022462B46911839645B417B64D7E91023A6
:1019B400121945EB03034FF000004FF00001D9006A
:1019C40041EA5271D00002460B46111939666B4147
:1019D4007B66FB6E5B681A464FF000039118B9638F
:1019E4005B41FB63D7E90E23D7E91801FEF7F0FB4F
:1019F40002460B46A54BA3FB02235B091E017B6F2A
:101A04001C464FF0000522462B46911839635B4172
:101A14007B63D7E90C23121945EB03034FF0000055
:101A24004FF00001D90041EA5271D00002460B4642
:101A34001119B9656B41FB65FB6E5B681A464FF083
:101A440000039118B9625B41FB62D7E90A23D7E925
:101A54001601FEF7BDFB02460B468C4BA3FB02139B
:101A64005B09642101FB03F3D31ADB003233874A99
:101A7400A2FB03235B095B0003F4F8731E447B6F32
:101A840018464FF0000102460B4694183C625B4135
:101A94007B62D7E90823121841EB03034FF00004DB
:101AA4004FF00005DD0045EA5275D40022462B466E
:101AB40014183C654B417B65FB6E5B681A464FF01E
:101AC40000039118B9615B41FB61D7E90623D7E9AB
:101AD4001401FEF77DFB02460B466C4BA3FB02137D
:101AE4005B09642101FB03F3D31ADB003233674A39
:101AF400A2FB03235B0903F00702FB6E1B6832445D
:101B04009A60B9E07B6F1C464FF0000522462B46D5
:101B1400911839615B417B61D7E90423121945EBC4
:101B240003034FF000004FF00001D90041EA527165
:101B3400D00002460B4612EB040843EB0509FB6E8A
:101B44005B6818464FF000014FF000024FF00003AD
:101B54008B0043EA9073820040464946FEF738FB07
:101B640002460B46494BA3FB02235B091E017B6F14
:101B740018464FF0000102460B469418BC605B41C6
:101B8400FB60D7E90223121841EB03034FF0000472
:101B94004FF00005DD0045EA5275D40022462B467D
:101BA4001418BC644B41FB64FB6E5B6818464FF031
:101BB40000014FF000024FF000038B0043EA9073E2
:101BC4008200D7E91201FEF703FB02460B462F4BB6
:101BD400A3FB02135B09642101FB03F3D31A1B016A
:101BE40032332A4AA2FB03235B0903F0F0031E44A9
:101BF4007B6F18464FF0000102460B4694183C6078
:101C04005B417B60D7E90023121841EB03034FF0DB
:101C140000044FF00005DD0045EA5275D400224669
:101C24002B4612EB000A43EB010BFB6E5B68184674
:101C34004FF000014FF000024FF000038B0043EA25
:101C44009073820050465946FEF7C2FA02460B468C
:101C54000E4BA3FB02135B09642101FB03F3D31AAC
:101C64001B013233094AA2FB03235B0903F00F0271
:101C7400FB6E1B6832449A6000BF7C37BD46BDE8EA
:101C8400F08F00BF00100140001401401F85EB518C
:101C940070B50D4D0D4C641BA4100026A64209D14D
:101CA4000B4D0C4C00F020F8641BA4100026A64237
:101CB40005D170BD55F8043B98470136EEE755F859
:101CC400043B98470136F2E7341D0008341D000830
:101CD400341D0008381D000802440346934200D115
:101CE400704703F8011BF9E7F8B500BFF8BC08BC5E
:101CF4009E467047F8B500BFF8BC08BC9E467047C6
:101D040048656C6C6F20576F726C64210000000092
:101D14000000000000000000010203040607080997
:081D24000000000001020304AD
:081D2C00D8E4FF7F0100000074
:041D3400B9010008E9
:041D38009501000809
:0C1D3C000024F400100000000100000072
:04000005080007CD1B
:00000001FF
